:03000000020333C5
:0C033300787FE4F6D8FD75816502037A3E
:0600030004620000000091
:10048700E4F526C3E526940474809480503DE52660
:1004970075F00AA4243DF8E4F608F6E52675F00A97
:1004A700A4243FF8E4F6E52675F00AA4243AF87682
:1004B70000087600087600E52675F00AA42440F8BF
:0B04C7001201DC00000000052680B8D8
:0104D2002207
:0604D3008B268A27892810
:1004D900E4F529C3E5299404748094805032E52910
:1004E90075F00AA4243AF8860308E6FA08E64A4BA6
:1004F900701AE52975F00AA4243AF9E4A801FCFD6B
:10050900AB26AA27A928FE7F0A0200DE052980C397
:0105190022BF
:1003BF008F398E388D378C36AF35AE34AD33AC3296
:1003CF00AB39AA38A937A836C3120177401AE539D5
:1003DF009535F535E5389534F534E5379533F533FF
:1003EF00E5369532F532802BAF35AE34AD33AC32C6
:1003FF001201698F358E348D338C32E5352539F501
:10040F0035E5343538F534E5333537F533E5323501
:0B041F0036F532AF35AE34AD33AC32F1
:01042A0022AF
:10029A00752700752800752900E4F526C3E526941C
:1002AA0004748094804003020332E52675F00AA4A0
:1002BA00243AF9E4FAFBF527F52889299000051272
:0402CA000104605F6C
:1002CE00AB27AA289000061201888F358E348D3305
:1002DE008C32AF65AE64AD63AC621203BF8F2D8EF0
:1002EE002C8D2B8C2AAB27AA28A92990000312014A
:1002FE0031FFAEF0E4FCFDAB2DAA2CA92BA82AC32E
:10030E00120177401AAF65AE64AD63AC62AB27AA3B
:0F031E0028A9299000061201B81201F512021544
:05032D0005260202A6F6
:0103320022A8
:10055B00E5652401F565E43564F564E43563F5631D
:06056B00E43562F5622296
:03000B0002051AD1
:10051A00C0E0C0F0C083C082C0D075D000C000C0A7
:10052A0001C002C003C004C005C006C007758A66C0
:10053A00758CFC12055BD007D006D005D004D00319
:10054A00D002D001D000D0D0D082D083D0F0D0E079
:01055A00326E
:100571005389F0438901758A66758CFCC28DD28CD2
:05058100D2A9D2AF2257
:03058600B2A022FE
:03058900B2A122FA
:03058C00B2A222F6
:10042B00120571120487750B03750CE8750D0175B8
:10043B0008FF750905750A867515077516D07517AA
:10044B00017512FF751305751489751F0B7520B88F
:10045B00752101751CFF751D05751E8C7B007A00BF
:10046B0079081204D37B007A0079121204D37B0033
:0C047B007A00791C1204D312029A80FB54
:10033F0002042BE493A3F8E493A34003F68001F2A5
:10034F0008DFF48029E493A3F85407240CC8C333BF
:10035F00C4540F4420C8834004F456800146F6DF8E
:10036F00E4800B0102040810204080900003E47E1B
:10037F00019360BCA3FF543F30E509541FFEE49383
:10038F00A360010ECF54C025E060A840B8E493A34A
:10039F00FAE493A3F8E493A3C8C582C8CAC583CA75
:1003AF00F0A3C8C582C8CAC583CADFE9DEE780BE2D
:0100090000F6
:10000E00E709F608DFFA8046E709F208DFFA803ED4
:10001E0088828C83E709F0A3DFFA8032E309F608C1
:10002E00DFFA8078E309F208DFFA807088828C8329
:10003E00E309F0A3DFFA806489828A83E0A3F608DD
:10004E00DFFA805889828A83E0A3F208DFFA804CB7
:10005E0080D280FA80C680D4806980F2803380108E
:10006E0080A680EA809A80A880DA80E280CA8033F7
:10007E0089828A83ECFAE493A3C8C582C8CCC5836F
:10008E00CCF0A3C8C582C8CCC583CCDFE9DEE7803F
:10009E000D89828A83E493A3F608DFF9ECFAA9F0BE
:1000AE00EDFB2289828A83ECFAE0A3C8C582C8CC14
:1000BE00C583CCF0A3C8C582C8CCC583CCDFEADE2D
:1000CE00E880DB89828A83E493A3F208DFF980CC8F
:1000DE0088F0EF60010E4E60C388F0ED2402B40488
:1000EE000050B9F582EB2402B4040050AF2323452F
:0600FE00822390005E73F6
:10010400BB010CE58229F582E5833AF583E02250B0
:1001140006E92582F8E622BBFE06E92582F8E222FA
:0D012400E58229F582E5833AF583E4932214
:10013100BB0110E58229F582E5833AF583E0F5F00C
:10014100A3E0225009E92582F886F008E622BBFEE9
:100151000AE92582F8E2F5F008E222E5832AF5832F
:08016100E993F5F0A3E99322F4
:0E016900C3E49FFFE49EFEE49DFDE49CFC22A7
:10017700EB9FF5F0EA9E42F0E99D42F0E89C45F0DE
:010187002255
:10018800BB010DE58229F582E5833AF58302022752
:100198005007E92582F802021BBBFE07E92582F811
:1001A800020233E58229F582E5833AF58302023FAC
:1001B800BB010DE58229F582E5833AF58302025BEE
:1001C8005007E92582F802024FBBFE07E92582F8AD
:0401D8000202672296
:1001DC00D083D082E493F608740193F608740293EA
:0901EC00F608740393F674047321
:1001F500BB010789828A8302027C5005E9F8020265
:1002050073BBFE05E9F802028589828A8302028EA4
:060215008A838982E47374
:0C021B00E6FC08E6FD08E6FE08E6FF220F
:0C022700E0FCA3E0FDA3E0FEA3E0FF224A
:0C023300E2FC08E2FD08E2FE08E2FF2207
:10023F00E493FC740193FD740293FE740393FF2205
:0C024F00ECF608EDF608EEF608EFF622DB
:0C025B00ECF0A3EDF0A3EEF0A3EFF02216
:0C026700ECF208EDF208EEF208EFF222D3
:09027300E6FB08E6FA08E6F922B0
:09027C00E0FBA3E0FAA3E0F92283
:09028500E2FB08E2FA08E2F922AA
:0C028E00E493FB740193FA740293F922CC
:00000001FF
